:030000000204AE49
:0C04AE00787FE4F6D8FD7581200203F091
:10042500202020323030302D30302D30302000204B
:0904350030303A30303A3030002A
:0F0319008F807F057E00120328D2B47F057E00FF
:10032800D3EF9400EE940040147D727C00ED1D70B4
:0D033800011CED4C70F7EF1F70E61E80E316
:010345002295
:0204C300002215
:09048000AD097F0A1203B87FCB1D
:08048900C2B5120319C2B4222E
:08049100FF120489EB2430FF87
:08049900D2B5120319C2B4220E
:10026300D2A77580FFC2A7D2A6E4F580C2A6C2B406
:10027300C2B67F381204897F0C1204897F061204E8
:10028300897F80120489E4F50DE50D90042593FF21
:100293001204997F0A7E00120328050DE50DC3940D
:1002A3000E40E67FC3120489E4F50DE50D90043496
:1002B30093FF1204997F0A7E00120328050DE50DB2
:1002C300C3940940E6758911758C3C758AB0D2A92F
:0F02D300D28C758D3C758BB0D2ABC28ED2AF2260
:0403B400AD0B7F0707
:1003B800ED75F00A84FBED75F00A84AAF0EF24C00D
:0A03C800120491EA2430FF020499A8
:0403D200AD0F7F0BE1
:1003D600ED75F00A84FBED75F00A84AAF0EF24802F
:0A03E600120491EA2430FF0204998A
:10001E0020B05D12032420B016051230B0FDE5129B
:10002E00B4010CC28C7FCB1204897F0F120489E5B8
:10003E0012B402057FC8120489E512B403057FC508
:10004E00120489E512B404057F8C120489E512B4FA
:10005E0005057F89120489E512B406057F86120410
:10006E0089E512B4070AE4F5127F0C120489D28CCA
:10007E00E51270030201CB30B103020128120324F2
:10008E0030B10302012830B1FDE512B4010D0509AE
:10009E00E509B43C03E4F509120480E512B402123A
:1000AE00050BE50BB43C03E4F50B1203B47FC81249
:1000BE000489E512B40316050CE50CB41803E4F537
:1000CE000CAD0C7F041203B87FC5120489E512B47F
:1000DE000412050FE50FB41F03750F011203D27F33
:1000EE008C120489E512B40516050EE50EB40D0347
:1000FE00750E01AD0E7F081203D67F89120489E5B5
:10010E0012B406160508E508B46403E4F508AD0854
:10011E007F051203D67F8612048930B2030201CB0B
:10012E0012032430B2030201CB30B2FDE512B4014A
:10013E000D1509E509B4FF0375093B120480E5129C
:10014E00B40212150BE50BB4FF03750B3B1203B48F
:10015E007FC8120489E512B40316150CE50CB4FF22
:10016E0003750C17AD0C7F041203B87FC5120489FA
:10017E00E512B40412150FE50FB4FF03750F1E122E
:10018E0003D27F8C120489E512B40516150EE50E06
:10019E00B4FF03750E0CAD0E7F081203D67F8912C5
:1001AE000489E512B406161508E508B4FF037508B0
:0E01BE0063AD087F051203D67F8612048922E6
:07000300D2A000D2A10022EF
:0D000E00D2A100D2A01204C3C2A00204C3FC
:0D04A100C2A000D2A11204C3D2A00204C365
:10040C00C2A100300004C2A08002D2A000D2A1126E
:09041C0004C3C2A100D2A0002219
:10046B00D2A11204C330A008C2A1001204A1C3225E
:05047B00C2A100D32224
:10036F00E4FEC2A100EF30E705D2A0008003C2A0D7
:10037F0000D2A100EF25E0FF0EBE08E6C2A100D219
:02038F00A000CC
:010391002249
:10034600C2A100D2A000E4FED2A10030A00543075E
:100356000180035307FE00C2A100EEC394075004B8
:08036600EF25E0FF0EBE08E0E8
:01036E00226C
:1002E200AD0712000E7F9012036F12046B400122C1
:1002F200AF0512036FC20012040C12000E7F91129E
:10030200036F12046B4001221203468F11C20012C6
:07031200040C1204A1D32228
:1003920020A21CD28EE510B46417E4F510C2A37F2C
:1003A200E87E03120328D2A37FE87E03020328C259
:0203B2008E2299
:1004550020A412C2A37FF47E01120328D2A37FF445
:060465007E0112032822B3
:10043E007F021202E2E511D39496400720A204E453
:07044E00F590227590FF22DA
:1003F00012026312000312001E20A50B12043E120B
:0C040000045512039280EFE4F59080EAAE
:03000B000201CC23
:1001CC00C0E0C0F0C0D075D000C002C003C004C0F5
:1001DC0005C006C007758C3C758AB0050AE50A6433
:1001EC00127061F50A0509E509643C7050F50905C2
:1001FC000BE50B643C7043F50B050CE50C641870B7
:10020C0032F50C050FE50F641F7025750F01050EF7
:10021C00E50EB40D14750E010508E508B4640375FC
:10022C000800AD087F051203D6AD0E7F081203D669
:10023C001203D2AD0C7F041203B81203B4AD097FC4
:10024C000A1203B8D007D006D005D004D003D002D0
:07025C00D0D0D0F0D0E03259
:03001B000204BA22
:0904BA00758D3C758BB005103204
:00000001FF
